:020000040000fa
:080000000002040000000000f2
:020000040000fa
:0400080006030000eb
:020000040000fa
:04000c0018030000d5
:020000040000fa
:0400100030030000b9
:020000040000fa
:040014000e030000d7
:020000040000fa
:0400180020030000c1
:020000040000fa
:04001c0028030000b5
:020000040000fa
:0400200038030000a1
:020000040000fa
:040024003a07000097
:020000040000fa
:040028007c03000055
:020000040000fa
:04002c003a0700008f
:020000040000fa
:040030003a0700008b
:020000040000fa
:040034003a07000087
:020000040000fa
:040038004003000081
:020000040000fa
:04003c003a0700007f
:020000040000fa
:040040003a0700007b
:020000040000fa
:040044009a0300001b
:020000040000fa
:0400480000040000b0
:020000040000fa
:04004c003a0700006f
:020000040000fa
:040050003a0700006b
:020000040000fa
:040054003a07000067
:020000040000fa
:040058003a07000063
:020000040000fa
:04005c00d0030000cd
:020000040000fa
:040060003a0700005b
:020000040000fa
:040064003a07000057
:020000040000fa
:040068003a07000053
:020000040000fa
:04006c003a0700004f
:020000040000fa
:040070003a0700004b
:020000040000fa
:040074003a07000047
:020000040000fa
:040078003a07000043
:020000040000fa
:04007c003a0700003f
:020000040000fa
:040080003a0700003b
:020000040000fa
:040084003a07000037
:020000040000fa
:040088005e03000013
:020000040000fa
:04008c003a0700002f
:020000040000fa
:040090003a0700002b
:020000040000fa
:040094003a07000027
:020000040000fa
:040098003a07000023
:020000040000fa
:04009c003a0700001f
:020000040000fa
:0400a0003a0700001b
:020000040000fa
:0400a4003a07000017
:020000040000fa
:0400a8003a07000013
:020000040000fa
:0400ac003a0700000f
:020000040000fa
:0400b0003a0700000b
:020000040000fa
:0400b400360400000e
:020000040000fa
:0400b8003a07000003
:020000040000fa
:0400bc003a070000ff
:020000040000fa
:0400c0003a070000fb
:020000040000fa
:0400c4003a070000f7
:020000040000fa
:0400c8003a070000f3
:020000040000fa
:0400cc003a070000ef
:020000040000fa
:0400d0003a070000eb
:020000040000fa
:0400d4003a070000e7
:020000040000fa
:0400d8003a070000e3
:020000040000fa
:0400dc003a070000df
:020000040000fa
:0400e0003a070000db
:020000040000fa
:0400e4003a070000d7
:020000040000fa
:0400e8003a070000d3
:020000040000fa
:0400ec003a070000cf
:020000040000fa
:0400f0003a070000cb
:020000040000fa
:0400f4003a070000c7
:020000040000fa
:0400f8003a070000c3
:020000040000fa
:0400fc003a070000bf
:020000040000fa
:040100003a070000ba
:020000040000fa
:040104003a070000b6
:020000040000fa
:040108003a070000b2
:020000040000fa
:04010c003a070000ae
:020000040000fa
:040110003a070000aa
:020000040000fa
:040114003a070000a6
:020000040000fa
:040118003a070000a2
:020000040000fa
:04011c003a0700009e
:020000040000fa
:040120003a0700009a
:020000040000fa
:040124003a07000096
:020000040000fa
:040128003a07000092
:020000040000fa
:04012c003a0700008e
:020000040000fa
:040130003a0700008a
:020000040000fa
:040134003a07000086
:020000040000fa
:040138003a07000082
:020000040000fa
:04013c003a0700007e
:020000040000fa
:040140003a0700007a
:020000040000fa
:040144003a07000076
:020000040000fa
:040148003a07000072
:020000040000fa
:04014c003a0700006e
:020000040000fa
:040150003a0700006a
:020000040000fa
:040154003a07000066
:020000040000fa
:040158003a07000062
:020000040000fa
:04015c003a0700005e
:020000040000fa
:040160003a0700005a
:020000040000fa
:040164003a07000056
:020000040000fa
:040168003a07000052
:020000040000fa
:04016c003a0700004e
:020000040000fa
:040170003a0700004a
:020000040000fa
:040174003a07000046
:020000040000fa
:040178003a07000042
:020000040000fa
:04017c003a0700003e
:020000040000fa
:040180003a0700003a
:020000040000fa
:040184003a07000036
:020000040000fa
:040188003a07000032
:020000040000fa
:04018c003a0700002e
:020000040000fa
:040190003a0700002a
:020000040000fa
:040194003a07000026
:020000040000fa
:040198003a07000022
:020000040000fa
:04019c003a0700001e
:020000040000fa
:0401a0003a0700001a
:020000040000fa
:0401a4003a07000016
:020000040000fa
:0401a8003a07000012
:020000040000fa
:0401ac003a0700000e
:020000040000fa
:0401b0003a0700000a
:020000040000fa
:0401b4003a07000006
:020000040000fa
:0401b8003a07000002
:020000040000fa
:0401bc003a070000fe
:020000040000fa
:0401c0003a070000fa
:020000040000fa
:0401c4003a070000f6
:020000040000fa
:0401c8003a070000f2
:020000040000fa
:0401cc003a070000ee
:020000040000fa
:0401d0003a070000ea
:020000040000fa
:0401d4003a070000e6
:020000040000fa
:0401d8003a070000e2
:020000040000fa
:0401dc003a070000de
:020000040000fa
:0401e0003a070000da
:020000040000fa
:0401e4003a070000d6
:020000040000fa
:0401e8003a070000d2
:020000040000fa
:0401ec003a070000ce
:020000040000fa
:0401f0003a070000ca
:020000040000fa
:0401f4003a070000c6
:020000040000fa
:0401f8003a070000c2
:020000040000fa
:0401fc003a070000be
:020000040000fa
:040200003a070000b9
:020000040000fa
:040204003a070000b5
:020000040000fa
:040208003a070000b1
:020000040000fa
:04020c003a070000ad
:020000040000fa
:040210003a070000a9
:020000040000fa
:040214003a070000a5
:020000040000fa
:040218003a070000a1
:020000040000fa
:04021c003a0700009d
:020000040000fa
:040220003a07000099
:020000040000fa
:040224003a07000095
:020000040000fa
:040228003a07000091
:020000040000fa
:04022c003a0700008d
:020000040000fa
:040230003a07000089
:020000040000fa
:040234003a07000085
:020000040000fa
:040238003a07000081
:020000040000fa
:04023c003a0700007d
:020000040000fa
:040240003a07000079
:020000040000fa
:040244003a07000075
:020000040000fa
:040248003a07000071
:020000040000fa
:04024c003a0700006d
:020000040000fa
:040250003a07000069
:020000040000fa
:040254003a07000065
:020000040000fa
:040258003a07000061
:020000040000fa
:04025c003a0700005d
:020000040000fa
:040260003a07000059
:020000040000fa
:040264003a07000055
:020000040000fa
:040268003a07000051
:020000040000fa
:04026c003a0700004d
:020000040000fa
:040270003a07000049
:020000040000fa
:040274003a07000045
:020000040000fa
:040278003a07000041
:020000040000fa
:04027c003a0700003d
:020000040000fa
:040280003a07000039
:020000040000fa
:040284003a07000035
:020000040000fa
:040288003a07000031
:020000040000fa
:04028c003a0700002d
:020000040000fa
:040290003a07000029
:020000040000fa
:040294003a07000025
:020000040000fa
:040298003a07000021
:020000040000fa
:04029c003a0700001d
:020000040000fa
:0402a0003a07000019
:020000040000fa
:0402a4003a07000015
:020000040000fa
:0402a8003a07000011
:020000040000fa
:0402ac003a0700000d
:020000040000fa
:0402b0003a07000009
:020000040000fa
:0402b4003a07000005
:020000040000fa
:0402b8003a07000001
:020000040000fa
:0402bc003a070000fd
:020000040000fa
:0402c0003a070000f9
:020000040000fa
:0402c4003a070000f5
:020000040000fa
:0402c8003a070000f1
:020000040000fa
:0402cc003a070000ed
:020000040000fa
:0402d0003a070000e9
:020000040000fa
:0402d4003a070000e5
:020000040000fa
:0402d8003a070000e1
:020000040000fa
:0402dc003a070000dd
:020000040000fa
:0402e0003a070000d9
:020000040000fa
:0402e4003a070000d5
:020000040000fa
:0402e8003a070000d1
:020000040000fa
:0402ec003a070000cd
:020000040000fa
:0402f0003a070000c9
:020000040000fa
:0402f4003a070000c5
:020000040000fa
:0402f8003a070000c1
:020000040000fa
:0402fc003a070000bd
:020000040000fa
:040300003a070000b8
:020000040000fa
:040304003a070000b4
:020000040000fa
:040308003a070000b0
:020000040000fa
:04030c003a070000ac
:020000040000fa
:040310003a070000a8
:020000040000fa
:100400000f4021000eff24000e01880000000000b4
:10041000000020000000e000020032000001200087
:100420002002880014000700940207000000e0008a
:1004300003003a00a0a921000100200002003700bb
:100440000000200001002000810f70000100320038
:100450000f000700000020000000e0000200320052
:100460000000020000000000a212020000000000d4
:100470000040da000000fe00200020000000e00044
:1004800002003200100020009001880000000600e9
:10049000a1028800800478000000eb001f003700f4
:1004a000e284440054a0b4009905ba00e2844400f8
:1004b00054a0b4009906ba00e284440054a0b400e9
:1004c0000006eb00476fde00fd07b200ae018800ba
:1004d000636ce10003003a000ad801000000eb0061
:1004e0000e003700606ce10008003a00004deb00a0
:1004f0000a05e800020039003420ec000af0a000f0
:100500008b05e900f9ff3e00040037006168e10057
:10051000010032000086eb000b00070019c7ba008b
:100520000e04e0001905ba0003003a000a00e000da
:10053000dbff3a0000000600fe07b200ae028800b2
:100540008a047800f5ff37000cd0a300e20f4d00bd
:100550001c00390089027800354dba000a05e80010
:10056000020039003420ec000af0a0008b05e900fd
:100570000f003200254dba000a05e80002003900dc
:100580003420ec000af0a0008b05e90008003200de
:100590000c00e0000600320015cdba000a05e800a4
:1005a000020039003420ec000af0a0008b05e900bd
:1005b0008984e80054a0b4000b00e000e2ff3a0098
:1005c000000006009902ba00055d78008b05e9007d
:1005d000f7ff3200c82ade00055d78008b05e900d0
:1005e000f3ff32000c00e000f1ff320019ddba0029
:1005f000eeff37005a160400000000001217040036
:1006000000000000ca170400000000003600f800d7
:10061000c028a9000000eb009a0c07003600f80083
:100620009c0c0700c048a90010002000950c070092
:100630003600f800c068a90020002000910c0700d7
:100640003600f800c088a900300020008d0c07009b
:100650003600f800c0a8a90040002000890c07005f
:100660003600f800c608a90070002000850c0700bd
:100670003600f800c488a900a0002000810c070003
:100680003600f800809fbe00829fbe00849fbe009f
:10069000869fbe000000fa00fc0a07000088a9003f
:1006a0000080fa004f03be004f02be004f01be00a3
:1006b0004f00be003600f900004006003600f8008a
:1006c000809fbe00829fbe00849fbe00869fbe00aa
:1006d0000000fa00fd0a07000308a9000080fa00e4
:1006e0004f03be004f02be004f01be004f00be00d0
:1006f0003600f900004006003600f800809fbe007a
:10070000829fbe00849fbe00869fbe000000fa004c
:10071000670c07000008a9000080fa004f03be0024
:100720004f02be004f01be004f00be003600f90070
:10073000004006003600f800809fbe00829fbe0089
:10074000849fbe00869fbe000000fa0000818000ea
:100750000000e00002003200008180000000010083
:10076000d0042100104078008040e800d00421002f
:1007700001487800c004210011c0b300014878008e
:1007800000e8a9000080fa004f03be004f02be003f
:100790004f01be004f00be003600f90000400600c9
:1007a0003600f800809fbe00829fbe00849fbe007e
:1007b000869fbe003200f8003400f80010002000d0
:1007c000a0018800100020009001880000000000b7
:1007d0000000fa000a0c070001a8a9000080fa0036
:1007e0003400f9003200f9004f03be004f02be0092
:1007f0004f01be004f00be003600f9000040060069
:100800003600f800809fbe00829fbe00849fbe001d
:10081000869fbe000000fa00308180000000e000ea
:10082000020032003081800000000100f00421004d
:10083000104078008040e800f00421000148780072
:10084000e004210011c0b300014878000108a900ac
:100850000080fa004f03be004f02be004f01be00f1
:100860004f00be003600f900004006003600f800d8
:10087000809fbe00829fbe00849fbe00869fbe00f8
:10088000889fbe003400fa000021800061006000f3
:10089000004078000004e000310132004120800077
:1008a00000fc2f00008060004020880064004700aa
:1008b0002f05070013f0b7004e4890000080fb00a2
:1008c000c800dd003e4890000080fb000080400032
:1008d000308088006e4890000080fb00c800dd007a
:1008e0005e4890000080fb0000804000408088004f
:1008f0000e5090000080fb00c800dd007e48900094
:100900000080fb0000804000008088002e50900096
:100910000080fb00c800dd001e5090000080fb003e
:1009200000804000108088000180800020032000ab
:10093000808f500002003400050ea800010037002f
:10094000050ea9002ceea90013d0bf000004e000a2
:10095000020032002ceea8000621ef0030088000d3
:100960008000eb00b001070018c0b300b23a2100cc
:1009700003142400860107000000e00001003c0091
:100980000044eb000804e000020032000430ef00f5
:10099000b900370040808000cf80de009f01070053
:1009a00012d72300a3fa2300350107007a010700bc
:1009b000000078005080880031808000403820009e
:1009c000808f50001b003c0030808000f30f5000ef
:1009d0001800340040808000cf80de008f010700c7
:1009e00018c0b30002002a00534924006801070020
:1009f0000000e00001003c000044eb000804e000bf
:100a00000c003a0040808000cf80de0083010700a8
:100a100018c0b300d2cc2c00431d24005a0107009b
:100a20000000e000010035000044eb000804e00095
:100a30000e003200500880008000eb007a010700b1
:100a400018c0b300b23a210003142400500107007b
:100a50000000e00001003c000044eb000804e0005e
:100a60001f0032001670ef001d003700508080001c
:100a7000510220008080400030808000808f500034
:100a80000600340050808000b1fd2f0080804000bf
:100a900030808000808f50000e00350050088000ac
:100aa0008000eb006001070018c0b300b23a2100db
:100ab00003142400360107000000e00001003c00a0
:100ac0000044eb000804e000050032001670ef005f
:100ad000030037000a21ef0010c0b30016f0b70082
:100ae0000180800040062000808f500012003400fa
:100af00031808000000a2000808f50000c003c00f4
:100b000050808000cf80de004401070018c0b30091
:100b1000e27a2000e33324001d0107000000e0001a
:100b200001003c000044eb000804e0000200320039
:100b30001770ef00c700370001808000800c200094
:100b4000808f50000c003c000180800010032000ca
:100b5000808f50000800340011808000800c20003d
:100b6000808f500004003c001180800010032000a2
:100b7000808f500002003c001770ef001200370019
:100b80003180800070062000808f50000e003c00f5
:100b900050808000cf80de002001070018c0b30025
:100ba000e27a200063302400f70007000000e00034
:100bb000010035000044eb000804e00002003200b0
:100bc00010c0b30017f0b700318080005080800063
:100bd00000804000cf00de00008040000080d10097
:100be000000f780016d0bf000000fb00cf80de00b1
:100bf0000a0107000004be0017d0bf000000fb0080
:100c0000cf80de00050107000001be000800be0025
:100c10005a0107000004be0021f42f001e8140008d
:100c2000b04721000090b900c388de004f90de007d
:100c300000805000cf80de00f80007000001be00f9
:100c40000800be004d0107000004be00d0808000f7
:100c5000cf80de00f10007000001be000800be00ea
:100c600046010700cc000700100798001e00900006
:100c7000ea00b9002080880040c0b300005f9800ff
:100c8000000c200001002000200f9800310f980078
:100c900080c0b300205f98000040eb00505f9800d8
:100ca0000040eb00605f980010c0b300705f9800d8
:100cb000c0cfb3001067980080c0b30020679800d1
:100cc000c0808000e20f500003003200c08080002e
:100cd000e50f500012003a0021808000f00f28003c
:100ce000008060000000e00004003d000000e9001a
:100cf00001f02f00008070000000e8000040780044
:100d0000305f9800208080004880de00004078003e
:100d1000405f980010c0b3000067980006003700dd
:100d20000040eb00305f98000040eb00405f98000f
:100d30000040eb00006798007400470080007800d6
:100d400020002000d403070012f0b7002ccea90029
:100d500012d0bf000004e000010032002ccea80039
:100d6000002180000000d100610060000040780098
:100d70000004e0000f0032004120800000fc2f0042
:100d8000008060000000a000402088004002200099
:100d90000e004000f603070013f0b7003e68900015
:100da0000cf0b7004e68900014f0b7005e68900039
:100db0000ef0b7005120800000022000008060008b
:100dc0000000e000160032005120800000002200e8
:100dd000008060000000e000020032001403070001
:100de0000ba4a900512080000000210000806000b9
:100df0000000e00002003200110307000b84a9008c
:100e00005120800000802000008060000000e00091
:100e1000020032000e0307000b64a9000aa4a90017
:100e200050208000620060000000e00002003200fc
:100e30000a24a9000a0307005120800000042000b2
:100e4000008060000000e000010032000ac4a90038
:100e50000468a9000080fa004f04be004f03be00e2
:100e60004f02be004f01be004f00be003600f90029
:100e7000004006000040da000000fe00000005000f
:100e8000889fbe008a9fbe008c1f7800a3000700c9
:100e9000aa00330003866c006450e1002e0032008b
:100ea0006420e100330032006150e1002f00320085
:100eb0006120e1003100320085855500eb07b0006c
:100ec0000900200008042000050037000804440041
:100ed00089844c000a0031000603430087834b00dd
:100ee0000001530081815b00f8ff33000203be0064
:100ef0000800a0000804440089844c00f6ff390073
:100f0000c639dd00830173000100320013002000a8
:100f10008904d1000884d3000998a3000500320099
:100f20000800a7000300a0008904d1000884d300b2
:100f30008b05e8008904d1000884d3000001eb0090
:100f40000281d2003a00070001f0a1000cf0a700d6
:100f500001f0a000820037006420e100840032002c
:100f60000801be000200be00f7ff37006120e1006b
:100f70007f0032006000b800f3ff3700000020005f
:100f800001f82700f0ff370014002000dc013700d3
:100f9000f4ff2f00da0137000001be004a0007000d
:100fa0000470a70003f0a1006509b100160032002b
:100fb0000d0035006828e10006003500f0ff2f0025
:100fc000f1ff27000300e00013003b0001002800b0
:100fd0000000050000004000818048008502e90013
:100fe000fcff3a0008003700f88f420002003c0086
:100ff0008000eb00000005008100d1000080d300dc
:101000008502e800fcff3a000300e00002003b001c
:1010100060001000e0801800000006004f89de002c
:1010200082017800d10137006011b800df0137007c
:1010300081002000618055000b003d000b00200066
:1010400061fe2f000100e1001d003400828171006b
:10105000610164008904d1000884d3000000e80025
:10106000faff3a0071002000610064000300700084
:10107000020060000900320061044400e0844c007a
:101080000988a500050032008b05e8006808e1002a
:1010900002003a008904d1000884d300f20f200036
:1010a0000258e10005003d00c75ddd00f907b20010
:1010b0008980750008007800000006000bf8270002
:1010c0008b00780000000500c70ade00f107b200bf
:1010d000f50fb20008003200e1cf420002003200fa
:1010e0000170a00024000500810f70000100320093
:1010f0000408050044000500810f700002003a005a
:10110000140005008502e9000000400081c048008d
:10111000fcff3b000170a000240005000004be009d
:10112000e9ff07000003be000405be000200be0088
:10113000e5ff0700844f7500000006000200be00b6
:101140006450e100050036006420e1000200360032
:101150000968a30001003a000800be000160a00079
:101160004f0678004f05be004f04be000000060089
:10117000f0ff2f00f1ff2700f9ff3700889fbe0026
:101180008a9fbe008c1f7800e4ff0700ebff33004e
:1011900003866c006450e100240032006420e1000a
:1011a000270032006150e100220032006120e1009e
:1011b000210032008b854200eb07b1000134b800fa
:1011c000003ab8000804420089844a00013ab80095
:1011d0000030b8008880400009014a000400330054
:1011e0000000400081804800020149008b05e900b1
:1011f000c909dd00830170000100320013002000e6
:10120000c814de004814dd004709de001200b200f9
:10121000c808de000884700085ff070001f0a10007
:101220000cf0a70001f0a000cdff37006120e10025
:10123000cfff32000801be000200be00f7ff3700fa
:101240006150e100fcff3a00c9ff3700889fbe00f3
:101250008a9fbe0030044200b0844a0030054b0033
:1012600090854b006000b1000898be000a90be0057
:101270000440e10005c8e10006d0e10007d8e10024
:1012800002003100680040001008e8004f05be0071
:101290004f04be0000000600889fbe008a9fbe006b
:1012a000100478009004900020059000b005900094
:1012b0000418540005985c0006185d0007985d004e
:1012c000110020000440e10005c8e10006d0e10063
:1012d00007d8e100010039008000eb001088100001
:1012e0004f05be004f04be00000006001200fa00c9
:1012f000889fbe008a9fbe008c9fbe00e0b79f0003
:10130000f1b79f0082bf9f0093bf9f000605be00fc
:101310000404be000000eb00d0b79f00c0b79f00e0
:10132000b0b79f00a0b79f0090b79f000006eb00ea
:101330005fb19700cfb09700820141003fb09700a6
:101340000200e00004003d00370007007e805700e7
:10135000beff070003003700330007007e80570000
:10136000cdff0700dfb697000d00e0000c00350050
:101370006fb29700ffb297000fbb97009fbb97001b
:1013800010002000010020006011b800000272006f
:101390008182720002037300838373001b000700c5
:1013a0000c06e80001042000810f5600e0ff3a001f
:1013b0000d00e00004003d000802be000a03be006c
:1013c0007e805700a1ff07005fa897000000e000a3
:1013d00005003a001fb29700afb297003fb39700e5
:1013e000cfb39700090007006fb09700ffb09700d8
:1013f0000fb997009fb997004f06be004f05be007a
:101400004f04be000080fa00000006000100070043
:1014100000000600a4b79f00b5b79f00c6b79f00a5
:10142000d7b79f00000006004f09de0082817100df
:10143000b3b79f004f01de008180400082807000c2
:10144000a1b79f008fb097004f09de000000400059
:101450000200700090b79f007fa897004f01de0048
:10146000818040008280700081b79f000d000700de
:101470004f3ade000000400004007000f0af9f0013
:10148000080007000402420085824a0006034b0060
:1014900087834b00dfff07000802be000a03be007f
:1014a000000006002fb29700bfb297004fb397001d
:1014b000dfb3970000000600881f780018002000a6
:1014c000881f780089ff07008f87e9004f047800a4
:1014d00000000600801feb0084ff07008f87e900f3
:1014e00000000600889fbe008a9fbe00e00f5000eb
:1014f000e08f5800e00f5900e08f59000c003d00cc
:101500006044b8006055b8000000540081805c0061
:1015100002015d0083815d001800200015000700b6
:1015200008003d00180007000004eb00050037002c
:101530000004eb000f00070002003d00120007004e
:1015400018002000dcff07000800e0000600320061
:101550006022b8006033b8000000520081805a0059
:1015600002015b0083815b004f05be004f04be009b
:1015700000000600e00f5200e08f5a00e00f5b0011
:10158000e08f5b00000006006044b8006055b800c2
:101590000402540085825c0006035d0087835d00c1
:1015a00000000600889fbe008a9fbe008c1f780046
:1015b000e00f5000e08f5800e00f5900e08f590015
:1015c0000d003d006044b8006055b80000005400b4
:1015d00081805c0002015d0083815d001c002000b1
:1015e0000820e10009a8e1000ab0e1000bb8e10021
:1015f0000d003d00080037000006eb00e00f520030
:10160000e08f5a00e00f5b00e08f5b0006003d00ba
:101610006044b8006055b8000402540085825c0044
:1016200006035d0087835d00aaff07000c00e00051
:10163000060032006022b8006033b800000052009b
:1016400081805a0002015b0083815b004f067800b5
:101650004f05be004f04be0000000600889fbe007c
:101660008a9fbe008c1f78000006eb00e00f500040
:10167000e08f5800e00f5900e08f590007003d004f
:101680006044b8006055b8000000540081805c00e0
:1016900002015d0083815d001c002000e00f52000c
:1016a000e08f5a00e00f5b00e08f5b0007003d0019
:1016b0006044b8006055b8000402540085825c00a4
:1016c00006035d0087835d000c00a2006600070032
:1016d0000c00e000060032006022b8006033b80061
:1016e0000000520081805a0002015b0083815b0090
:1016f0004f0678004f05be004f04be0000000600f4
:10170000889fbe008a9fbe00841f780083fe07006a
:101710004f00780011003300f0ff2f00838f6c0022
:1017200006003b00040565000a00a700080037001a
:1017300009f0a6001000200008003700820f5400b6
:10174000838f5c00030039001000200001003e0080
:101750000000200009f0a7000000ea004f05be00cd
:101760004f04be000000e00000000600881f780063
:10177000030478000300e00007003d006000100053
:10178000e080180060011900e081190002003b00b0
:1017900001f02d00030037000400070008f0a70047
:1017a00001f0a0004f04780000000600889fbe00f2
:1017b0008a9fbe00008270000402710004827100e2
:1017c000260032000004be000200be006011b80016
:1017d0006b092000950220000182cf000a00390029
:1017e0000541b1000082cf00070039000541b1007a
:1017f0000982cf00040039000541b1000882cf0002
:10180000010039000541b1000542520012003200ca
:101810000a003b0082817100610164008100d100f7
:101820000080d3008984d3000884d3008b05e800ae
:101830000442e800f7ff3a000700370008044400bc
:1018400089844c0000004800818048008b05e90035
:101850000442e900f9ff3a00f5fd07004f05be001c
:101860004f04be0000000600889fbe008a9fbe0095
:101870008c9fbe000404b8000506b8008904460029
:1018800060854e000606b8000a054600e0854e0059
:101890000706b8008b054600040eb8008904460010
:1018a0000a854e00e0854d00050eb8000a05460089
:1018b0008b854e00060eb8008b0546000416b80056
:1018c0000a0546008b854e000516b8008b054600bc
:1018d000041eb8008b0546000800be000a01be00c9
:1018e0004f06be004f05be004f04be0000000600bc
:020000040000fa
:1018f0000200fa00000f78001e007800e10f50008f
:1019000009003200e10f500005003900e20f5000dd
:1019100007003200e30f50000700320008003700d4
:1019200001eba8000600370011eba8000400370007
:1019300021eba8000200370031eba80000000000f6
:101940000080fa00000006000400fa00000f780092
:10195000110798001e007800e10f50000b003200c4
:10196000e10f500005003900e20f50000b0032007b
:10197000e30f50000d003200100037009e00900071
:1019800021588800062bef000c0037009e009000c5
:10199000a1588800162bef00080037009e00900029
:1019a00021598800262bef00040037009e0090008c
:1019b000a1598800362bef00000000000080fa00db
:1019c000000006000400fa00000f780011079800dc
:1019d0001e007800e10f50000a003200e10f5000b5
:1019e00005003900e20f500009003200e30f5000fb
:1019f0000a0032000c0037009e00900061588800f9
:101a0000090037009e009000e1588800060037006a
:101a10009e00900061598800030037009e009000ee
:101a2000e1598800000000000080fa000000060074
:101a30000000fa00840607000080fa00000006009b
:101a40000000fa00830607000080fa00000006008c
:101a50000000fa00820607000080fa00000006007d
:101a60000000fa00810607000080fa00000006006e
:101a70000000fa002468a9000c24ef000120800077
:101a8000f08f2f000080600000a0a00000208800e0
:101a90000000000001208000000e20008080600017
:101aa00000082000808f5000faff3a00400020001c
:101ab00080208800801924009020880010002c00cd
:101ac000302088001424ef000024ef000004a80058
:101ad000802180007f00600080218800a02180009c
:101ae0007f006000a0218800c02180007f0060008e
:101af000c021880081218000c0ff2f00008060008d
:101b000080218800a1218000c0ff2f00008060009c
:101b1000a0218800c1218000c0ff2f00008060004c
:101b2000c02188003224ef003624ef003a24ef0071
:101b30003064a9003464a9003864a9000004a90035
:101b400030e4a80031e4a80032e4a90033e4a9009d
:101b500034e4a90035e4a90036e4a90037e4a9007b
:101b600081218000c0ff2f0000806000802188005c
:101b700081218000f0cf2f0000806000802188004c
:101b800091218000c0ff2f0000806000902188001c
:101b900091218000f0cf2f0000806000902188000c
:101ba000a1218000c0ff2f0000806000a0218800dc
:101bb000a1218000f0cf2f0000806000a0218800cc
:101bc000b1218000c0ff2f0000806000b02188009c
:101bd000b1218000f0cf2f0000806000b02188008c
:101be0002024ef002224ef002824ef002a24ef0015
:101bf0000a24a90001208000f08f2f0000806000df
:101c0000002088000000000001208000000e20005d
:101c1000008060000000e000fbff3a002468a8009c
:101c20000c24a8000ca4a8000080fa000000060004
:101c30000000fa0020442000800078000000eb0043
:101c400060ff070000202100800078000000eb000a
:101c50003dff07000000eb0025ff07000080fa00b1
:101c6000000006000000fa00004420008000780018
:101c70002000200053ff0700002021008000780092
:101c80002000200030ff07002000200018ff070080
:101c90000080fa00000006000a00fa0030079800f1
:101ca0004107980000432000000f78000040eb003f
:101cb000404798000000eb0010079800260037000e
:101cc0001e0078009040780000c8b30000c060009b
:101cd0000004e0001c0032001e0078001040780074
:101ce000684060000004e00017003a000120210075
:101cf0001e0090004400dd0000804000ce009000f7
:101d0000a30107003e00900000407800e34060001f
:101d10001e007800e3c0600090417800c2cfb3009d
:101d200002c1610081407100014878001e00780006
:101d3000904078000134a0000148780010c0b30042
:101d400040479800070037001e0fe8001e00900073
:101d50000000e800100798001e009000e10f5000fe
:101d6000d7ff36004e4090000080fa0000000600c9
:101d70000800fa00300798000040eb002047980068
:101d800001218000210798002e0090000000e00053
:101d9000280032000000eb00000f78002000370020
:101da00020818000ae0090000008de00610060002d
:101db000004078000004e0000e0032002081800026
:101dc00000407800be0090006f0007002081800076
:101dd000110020000008dd000080ea00800078008b
:101de00000218000008060000021880010c0b30046
:101df00020479800208180000000e80020818800b2
:101e000020818000ef0f5000010036002430ef00e9
:101e10002e4090000004e00005003a001e0fe8008c
:101e20001e007800ef0f5000ddff36000100370084
:101e3000000000002e4090000080fa000000060024
:101e40000000fa00502080004d00de00614060007c
:101e50000080fb0000f0a7000000ea000000ea009c
:101e60004f00de00004078000080fa00000006000d
:101e70000000fa00502080004b00de00614060004e
:101e80000080fb0000f0a7000000ea000000ea006c
:101e90004f00de00004078000080fa0000000600dd
:101ea0000000fa00502080004c00de00614060001d
:101eb0000080fb0000f0a7000000ea000000ea003c
:101ec0004f00de00004078000080fa0000000600ad
:101ed0000600fa000000eb00000f780001218000ee
:101ee000210798002e0090000000e0001100320051
:101ef0000000eb00100798000b0037001e00900058
:101f0000ae0090000008de00610060000040780034
:101f10000004e000010032001e0fe8001e009000e7
:101f20000000e800100798001e009000ef0f50001e
:101f3000f2ff36001e007800004078000080fa00b2
:101f4000000006000000fa000ac4a9000cc4a800a2
:101f500001208000f08f2f00008060000080a00032
:101f6000002088000000000001208000000e2000fa
:101f70008080600000022000808f5000faff3a004d
:101f80000080fa00000006000c00fa00004f9800e4
:101f9000510798000000eb00100798000000eb00cc
:101fa000000f78006000b800200798003107980003
:101fb0000e4890000080fb00c400dd0000202100de
:101fc0000080400010007800610060001007980059
:101fd0001e0090000000e00017003a000e4890003c
:101fe0000080fb00c400dd000020210000804000d4
:101ff00090007800c0ff2100008060004200de00f9
:102000008000eb005e0190000089be005e00900041
:1020100041c0b300414098000e4890000080fb0092
:10202000c400dd0000202100008040001000780086
:10203000620f60006b0037000e4890000080fb00cc
:10204000c400dd0000202100008040001000780066
:102050006101b800c0ff21000100200002027800e9
:10206000030178008001780001007800030262001b
:10207000000061008000eb00c000dd0000002000d7
:102080000001be006120b800000171008181710073
:1020900022079800330798002e009000be009000a1
:1020a000c000dd00000020005e0190000089be003d
:1020b0005e00900010027800900290000e489000a0
:1020c0000080fb004400dd008080e800002021004b
:1020d00000804000100078006101b800f0ff20008f
:1020e00001002000020378000301780080017800dd
:1020f0000100780003036300000061008000eb0032
:10210000c000dd00000020000001be006130b8000a
:1021100000017100818171004618dd00ca10de00e7
:10212000810070004610dd000400400085804800fa
:102130005e0190000089be005e00900010027800f1
:10214000900290000e4890000080fb004400dd00eb
:10215000e4004000002021000080400010007800d2
:102160004a00de006101b800f0ff2f0001002000ee
:1021700002037800030178008001780001007800f4
:1021800003036300000061008000eb00c000dd007d
:10219000000020000001be006130b80000017100a5
:1021a0008181710004004100858049005e0190003a
:1021b0000089be005e00900031c0b300414098002d
:1021c0000e4890000080fb004400dd00e400400069
:1021d00000202100008040009000780000202000b6
:1021e000008f60001e0078000000e0000400320054
:1021f0005e00900021c0b30051409800620037009b
:102200005e00900011c0b300514098000e4890004d
:102210000080fb004400dd00e600400000202100bb
:102220000080400010007800804078005e00900040
:10223000714098000e4890000080fb004400dd00d3
:10224000e6004000002021000080400010007800df
:102250004800de00804078005e0090000148980051
:102260000e4890000080fb004400dd00e8004000c4
:10227000002021000080400010007800804078009d
:102280005e009000114898000e4890000080fb000e
:102290004400dd00e80040000020210000804000f4
:1022a000100078004800de00804078005e0090005a
:1022b000214898000e4890000080fb004400dd009b
:1022c000ea0040000020210000804000100078005b
:1022d000804078005e009000314898000e489000e1
:1022e0000080fb004400dd00ea00400000202100e7
:1022f00000804000100078004800de008040780038
:102300005e009000414898000e4890000080fb005d
:102310004400dd00ec00400000202100008040006f
:1023200010007800804078005e00900051489800ce
:102330000e4890000080fb004400dd00ec004000ef
:102340000020210000804000100078004800de00de
:10235000804078005e009000614898000e48900030
:102360000080fb004400dd00e4004000002021006c
:10237000008040001000780000407800ef406000ce
:102380005e009000614098000080fa0000000600a6
:102390000400fa00000f7800110798001e0090005a
:1023a00040409000e44f500014003a001e0090009e
:1023b000900090001000780080007800f07f2000ee
:1023c00000806000c200dd001e0078000108780077
:1023d0001e80e8008000eb00010878009e00780075
:1023e000648040009e009000e14090008180fb00ee
:1023f000ef80600001087800240037001e00900084
:1024000090009000100078004008de008000780006
:10241000c0ff210000806000800078000100a00063
:102420001e007800010878001e81e8001e00900060
:102430009000900010007800ca09dd004600de0020
:1024400000807100c608de0080007800f0ff2000e8
:1024500000806000000978009e00780064814000e0
:102460001e009000604090000080fb00ef016000c3
:102470001e0090009000900010007800000078008e
:102480004a00dd0000804100000978009e017800cc
:10249000668041009e009000814890008180fb0092
:1024a0004809dd009e009000f14090008180fb0013
:1024b00081004100010878009e007800688040009b
:1024c0009e009000a14890008180fb004809dd003b
:1024d0009e009000914890008180fb0081004100a7
:1024e000010878009e0178006a8041009e009000fb
:1024f000c14890008180fb004809dd009e009000eb
:10250000b14890008180fb00810041000108780003
:102510009e0078006c8040009e009000e148900092
:102520008180fb004809dd009e009000d1489000aa
:102530008180fb0081004100010878000080fa00e2
:10254000000006000000fa008b040700b8fd070039
:10255000188ea8004d00070014d0bf000004e00052
:1025600003003a00600e2000d08088000e00370083
:1025700014d0bf00e14f500003003a00600e20006d
:10258000d08088000800370014d0bf00e34f50000f
:1025900003003a0030072000d08088000200370096
:1025a000c0052000d080880038000700eaff37000f
:1025b0000400fa00100798000040eb00004f78007c
:1025c0000040eb00004f78002a003700052ea900dc
:1025d0001e00900000004000cf80de006109b900bd
:1025e0000203be000002be00007d200001002000aa
:1025f0006011b800b0fb070004a0250025262000cc
:102600006033b80015fc0700843e20000500200060
:102610006033b800a8fb07000000be008b04070071
:10262000052ea8001e009000cf80de006109b900d1
:102630000203be000002be00007d20000100200059
:102640006011b8009cfb070004a02500252620008f
:102650006033b80001fc0700843e20000500200024
:102660006033b80094fb07000000be007704070049
:102670001e4fe8009e00fb001e009000808f50005f
:10268000d2ff35000080fa00000006000200fa00c8
:10269000881f7800c0808000e20f50005500320093
:1026a000e20f500007003c000000e0001400320080
:1026b0000000e0001f003c00e10f40000800320075
:1026c00099003700e40f500064003200e40f50001e
:1026d00055003500e50f50008c00320092003700a5
:1026e0000cd0bf000004e0000300320030002000e6
:1026f000c0808800b60037001830ef00b400370003
:102700000cd0bf000004e0000a003a000180800005
:1027100010032000808f500006003c0011808000d4
:1027200010032000808f500002003c0010002000a9
:10273000c08088002c8ea9000cd0bf000004e000ef
:10274000860032000180800020032000808f50002e
:102750008400340031808000d00b2000808f500036
:1027600082003c0030808000f40f50008100340073
:1027700040808000cf80de0028fa070018c0b30038
:1027800042332b00c3372400fff907000000e000ac
:10279000010035000044eb000804e000770032003f
:1027a00040808000cf80de001cfa070018c0b30014
:1027b000d2cc2c00431d2400f5f907000000e000f6
:1027c00001003c000044eb000804e0006d00320012
:1027d00010708000620060000000e0006b003200ba
:1027e00020002000c08088001000200070ff07003b
:1027f000770037002c8ea800107080006200600007
:102800000000e000020032000a21ef0070003700f3
:1028100050088000e50f50005e00360010002000d8
:10282000c08088006a0037000cd0bf000004e000c0
:102830000a003a000180800010032000808f5000c1
:1028400006003c001180800010032000808f5000a3
:1028500002003c0040002000c08088002c8ea900af
:102860000cd0bf000004e0004c003200018080006a
:1028700020032000808f50004a0034003180800007
:10288000d00b2000808f500048003c00308080003a
:10289000f40f50004700340040808000cf80de00fd
:1028a000def9070018c0b30042332b00c337240001
:1028b000b5f907000000e000010035000044eb001e
:1028c0000804e0003d00320040808000cf80de0040
:1028d000d2f9070018c0b300d2cc2c00431d24004d
:1028e000abf907000000e00001003c000044eb00f1
:1028f0000804e0003300320050002000c08088004f
:10290000400020002aff0700310037002c8ea8006d
:1029100010708000620060000000e0002b003a00b0
:10292000188ea9002a003700000000000040eb00cc
:10293000004f78000040eb00004f780003003700a4
:10294000600020001aff07001e4fe8001e407800bc
:10295000e94f5000faff34001d003700000000006e
:102960001b003700000000001900370000000000c5
:1029700017003700000000001500370000000000bd
:1029800013003700000000001100370000000000b5
:102990000f003700000000000d00370000000000ad
:1029a0000b003700000000000900370000000000a5
:1029b000070037000000000005003700000000009d
:1029c0000300370000000000010037000000000095
:1029d0004f0478000080fa00000006000000fa00b2
:1029e000003a80000080fa00000006000200fa00b1
:1029f000faff0700000f78001e007800240007008f
:102a00000004e0000200320000002800710007000e
:102a10001e0078002a0007000004e00002003200d7
:102a2000000024006b0007001e0078003200070041
:102a30000004e000020032000020200065000700d2
:102a40001e0078003a0007000004e0000200320097
:102a5000000820005f0007001e0078004200070009
:102a60000004e000020032000004200059000700ca
:102a70001e0078004a0007000004e0000200320057
:102a800000012000530007000080fa00000006004b
:102a90000400fa00100798000040eb00004f780097
:102aa0001e0090000000e00002003d0010c0b300d6
:102ab000004f78001e4078000080fa0000000600f9
:102ac0000400fa00100798000040eb00004f780067
:102ad0009e00900000002400008060000000e000e4
:102ae0000200320010c0b300004f78001e40780092
:102af0000080fa00000006000400fa0010079800a9
:102b00000040eb00004f78009e0090000020200065
:102b1000008060000000e0000200320010c0b3003e
:102b2000004f78001e4078000080fa000000060088
:102b30000400fa00100798000040eb00004f7800f6
:102b40009e00900000082000008060000000e0006f
:102b50000200320010c0b300004f78001e40780021
:102b60000080fa00000006000400fa001007980038
:102b70000040eb00004f78009e0090000004200011
:102b8000008060000000e0000200320010c0b300ce
:102b9000004f78001e4078000080fa000000060018
:102ba0000400fa00100798000040eb00004f780086
:102bb0001e009000700060000000e0000200320083
:102bc00010c0b300004f78001e4078000080fa006b
:102bd000000006000200fa00000f78009e80ea0064
:102be000003a800000806000003a88000080fa000f
:102bf000000006000000fa004027ef000080fa0005
:102c0000000006000000fa000021ef0050892900b2
:102c1000100888000003280020088800f080800049
:102c20000000e00002003a00a06521002400070037
:102c30000068a9002068a800a00421008040eb00e3
:102c4000014878000080fa00000006000200fa0047
:102c5000000f78009e00780011088800a004210071
:102c60008040eb00014878000080fa000000060078
:102c70000000fa00100880000080fa000000060042
:102c80000200fa00000f78009e007800010888001a
:102c9000a00421008040eb00014878000080fa0089
:102ca000000006000000fa00000880000080fa0022
:102cb000000006000000fa000080fa000000060094
:102cc0000200fa00000f78002068a9009e0078003a
:102cd000f18088002068a8000080fa00000006004b
:102ce0000000fa00a00421008040eb0001487800b9
:102cf0002068a80005e1a8000080fa000000060096
:102d00000000fa0005e1a9002068a9000080fa008f
:102d1000000006000200fa00a0042100104f780015
:102d20001e4078000004e00003003200a0042100ef
:102d30008040eb00014878001e4078000080fa00d7
:102d4000000006000000fa00b004210010407800e6
:102d50000080fb000080fa00000006000000fa007e
:102d6000b00421008040eb00014878000080fa00a8
:102d7000000006000000fa000621ef00505120007c
:102d80006008880000032800800888000081800017
:102d90000000e00002003a0020712100240007003a
:102da00000e8a90020e8a800c00421008040eb0052
:102db000014878000080fa00000006000200fa00d6
:102dc000000f78009e00780061088800c004210090
:102dd0008040eb00014878000080fa000000060007
:102de0000000fa00600880000080fa000000060081
:102df0000200fa00000f78009e0078003108880079
:102e0000c00421008040eb00014878000080fa00f7
:102e1000000006000000fa00300880000080fa0080
:102e2000000006000000fa000080fa000000060022
:102e30000200fa00000f780020e8a9009e00780048
:102e40000181880020e8a8000080fa000000060048
:102e50000000fa00c00421008040eb000148780027
:102e600020e8a80011e1a8000080fa000000060098
:102e70000000fa0011e1a90020e8a9000080fa0092
:102e8000000006000200fa00c0042100104f780084
:102e90001e4078000004e00003003200c00421005e
:102ea0008040eb00014878001e4078000080fa0066
:102eb000000006000000fa00d00421001040780055
:102ec0000080fb000080fa00000006000000fa000d
:102ed000d00421008040eb00014878000080fa0017
:102ee000000006000000fa000a21ef005051200007
:102ef0007008880000032800900888003081800056
:102f00000000e00002003a00a07c2100240007003d
:102f10000108a9002108a800e00421008040eb007e
:102f2000014878000080fa00000006000200fa0064
:102f3000000f78009e00780071088800e0042100ee
:102f40008040eb00014878000080fa000000060095
:102f50000000fa00700880000080fa0000000600ff
:102f60000200fa00000f78009e00780051088800e7
:102f7000e00421008040eb00014878000080fa0066
:102f8000000006000000fa00500880000080fa00ef
:102f9000000006000000fa000080fa0000000600b1
:102fa0000200fa00000f78002108a9009e007800b6
:102fb000318188002108a8000080fa000000060086
:102fc0000000fa00e00421008040eb000148780096
:102fd0002108a80013e1a8000080fa000000060004
:102fe0000000fa0013e1a9002108a9000080fa00fe
:102ff000000006000200fa00e0042100104f7800f3
:103000001e4078000004e00003003200e0042100cc
:103010008040eb00014878001e4078000080fa00f4
:10302000000006000000fa00f004210010407800c3
:103030000080fb000080fa00000006000000fa009b
:10304000f00421008040eb00014878000080fa0085
:10305000000006000000fa004021ef00d000200030
:10306000100a8800000a8000004078006740600075
:103070000080fb00408188000080fa00000006000c
:103080000000fa000080fa00000006000000fa00cc
:1030900000408000620060000000e000020032009a
:1030a000f7ff07000028a9000080fa0000000600d2
:1030b0000000fa0040818000004078006740600016
:1030c0000080fb0067006000020a800081ff2f0083
:1030d0008100610001007000000a88000080fa0091
:1030e000000006000000fa00010a800080ff2f00a7
:1030f00000806000000a88000080fa0000000600de
:103100000000fa00200a80000080fa00000006009b
:103110000000fa0042c1a8000080fa00000006008a
:103120000000fa00100a80004600de0061406000e6
:103130000080fb0000f0a7000000ea000000ea00a9
:103140004f00de00004078000080fa00000006001a
:103150000000fa0042c1a9000080fa000000060049
:103160000000fa00000a80004400de0061406000b8
:103170000080fb0000f0a7000000ea000000ea0069
:103180004f00de00004078000080fa0000000600da
:103190000000fa00000a80006800600000f0a7004c
:1031a0000000ea000000e9004f00de000040780067
:1031b0000080fa00000006000000fa000002220071
:1031c000005888006004200010588800062bef008b
:1031d00000002100205888000a2bef00082bef0088
:1031e0000c2bef0070002000705888000088a900a8
:1031f0002088a8000002200080588800122bef00d1
:10320000162bef0000002100a05888001a2bef00b9
:10321000182bef001c2bef0070002000f0588800e6
:1032200001c8a900000220000059880020022000e7
:1032300010598800262bef0000002100205988003b
:103240002a2bef00282bef002c2bef007000200022
:10325000705988000308a9002308a800302bef004c
:10326000322bef00362bef0000002100a059880020
:103270003a2bef00382bef003c2bef003e2bef00fa
:103280000488a9000080fa00000006000000fa008f
:103290000080fa00000006000000fa000080fa003a
:1032a000000006000000fa00014080000000240039
:1032b000008060000000e00002003200f6ff07001e
:1032c00001c8a9000080fa00000006000000fa0012
:1032d0000080fa00000006000000fa000080fa00fa
:1032e000000006000000fa0020408000700060002e
:1032f0000000e00002003200f7ff07000488a90088
:103300000080fa00000006000000fa00042eef0022
:10331000182eef002c2eef00402eef00542eef0061
:10332000682eef007c2eef0030c82100007088006e
:10333000f0fe2f00a070880070c229004071880044
:1033400000162000e071880000002f0080728800c5
:103350001000200020738800003c2000c07388000b
:103360000c2eef00202eef00342eef00482eef0041
:103370005c2eef00702eef00842eef000a2eef007f
:103380001e2eef00322eef00462eef005a2eef00d9
:103390006e2eef00822eef00062eef001a2eef00a9
:1033a0002e2eef00422eef00562eef006a2eef0079
:1033b0007e2eef0000212000707088002020200069
:1033c00010718800f0bd2000b071880000002f004f
:1033d000f07288000030200030748800113a8000bc
:1033e000f00b2000008160006004200071052000c7
:1033f0002374200080497800814978008249780050
:103400001134800000fc2f0000806000e000b30059
:103410001034880000c6b300d4e6b700103a80002c
:10342000000178000260a000600420007105200007
:10343000237420008049780081497800824978000f
:103440000080fa00000006000000fa000080fa0088
:10345000000006000000fa000080fa0000000600ec
:103460000000fa000080fa00000006000000fa00e8
:103470000080fa00000006000000fa007cf9070056
:103480000080fa00000006000000fa00e8f90700da
:103490000080fa00000006000000fa00f1f90700c1
:1034a0000080fa00000006000400fa00000f780017
:1034b000110798001e009000800078001e00780020
:1034c000f5f907000080fa00000006000200fa008b
:1034d000000f78001e00780025fa07000080fa002f
:1034e000000006000000fa0055fa07000080fa000c
:1034f000000006000000fa005dfa07000080fa00f4
:10350000000006000000fa0065fa07000080fa00db
:10351000000006000000fa006dfa07000080fa00c3
:10352000000006000000fa0086fa07000080fa009a
:043530000000060091
:020000040000fa
:103534002a10000020000000800000001c10000081
:103544000200000082000000ffff00004a1000009b
:1035540002000000800000001e10000002000000b5
:10356400800000004c1000000200000080000000f9
:103574002010000002000000800000002210000063
:1035840002000000800000000012000000020000a1
:1035940080000000241000000200000080000000f1
:1035a4004e10000002000000800000002610000001
:1035b400020000008000000028100000020000004b
:1035c40080000000161000000600000082000000c9
:1035d4000101ff00ffe600000010000016000000db
:0835e40080000000000000005f
:020000040000fa
:1035ec000000fa0081428000f0ff2800008060009b
:1035fc0000c0a0008042880031428000f0f82f000b
:10360c00008060000040a000304288000142800031
:10361c0080ff2f00008060000000a00000428800a6
:10362c001142800080ff2f00008060000000a0008d
:10363c00104288006142800080ff2f0000806000f3
:10364c000000a000604288002142800080ff2f0013
:10365c00008060000000a000204288001142800021
:10366c00f0ff28000080600000c0a000104288001d
:10367c0001428000f0ff28000080600000c0a00024
:10368c00004288000080fa00000006000000fa00ea
:10369c0000102300203a88004827ef004e27ef0047
:1036ac0060022000303a88006027ef006227ef00ac
:1036bc006427ef006627ef006a27ef006c27ef0006
:1036cc006e27ef003200200080072000a1092000a7
:1036dc003374200080497800814978008249780051
:1036ec0012002000600420007105200023742000cb
:1036fc0080497800814978008249780000000000f8
:10370c00103a8000610060000000e000fcff3a000d
:10371c0000000000113a80000002200000806000d0
:10372c000000e000fbff32000080fa000000060001
:10373c000200fa00000f780021028000200f200008
:10374c00008060001e007000200288000080fa00db
:10375c00000006000000fa00c3e8a800000000000a
:10376c00000000000080fa00000006000000fa00d3
:10377c00e2fe0700c5ff070099ff0700b9f8070034
:10378c0079fd07004a00070009000700d2fd070079
:10379c002dfe070018fd070084fe0700edff070053
:1037ac0000022000e2ff07000080fa000000060083
:1037bc000000fa0000002800001988002223ef0006
:1037cc002423ef002823ef002e23ef003023ef00fb
:1037dc003223ef002623ef00101980004200de0098
:1037ec007f40600022f0b70021a8a8000080fa00fa
:1037fc00000006000000fa000080fa00000006003d
:10380c000000fa00a1ff07000080fa00000006008b
:10381c000000fa00003a80000080fa000000060068
:10382c000000fa006efc07000080fa0000000600a1
:10383c000000fa00ecfc07000080fa000000060013
:020000040000fa
:10384c00f03fb1000180b10006003500ee03090025
:10385c0000000000403fb1000180b100fbff3d00c3
:10386c001000b000203fb0000200350000800900bd
:08387c0000000000000006003e
:020000040000fa
:10388400000f78009e007800e1808800ffff370079
:103894000000fa00a0022100800778002004210023
:1038a400000188000080fa00000006000000fa0011
:1038b4000080fa00000006000000fa000008a900d9
:1038c400c208a9002008a8000080fa000000060031
:020000040000fa
:020000040005f5
:04570000ffff0000a7
:020000040000fa
:020000040005f5
:04572000ffff000087
:020000040000fa
:020000040005f5
:04573000f8ff00007e
:020000040000fa
:020000040005f5
:045738007aff0000f4
:020000040000fa
:020000040005f5
:045740009fff0000c7
:020000040000fa
:020000040005f5
:04574800ffff00005f
:020000040000fa
:020000040005f5
:04575000ffff000057
:020000040000fa
:020000040005f5
:04575800000000004d
:020000040000fa
:020000040005f5
:045760000000000045
:020000040000fa
:020000040005f5
:04576800000000003d
:020000040000fa
:020000040005f5
:045770000000000035
:020000040000fa
:020000040005f5
:04577800feff000030
:020000040000fa
:020000040005f5
:04578000ffff000027
:020000040000fa
:020000040005f5
:04578800ffff00001f
:00000001FF
